{
  "transactions": [
    {
      "hash": "0x0dbeaa8475218724fc9509a1eecb392a7c7da797808a51339823e8640919d451",
      "transactionType": "CALL",
      "contractName": null,
      "contractAddress": "0xb7ebd3c77c8c0b0cf783b7c8930c01bcdf8c562c",
      "function": "setGovernanceContract(address)",
      "arguments": [
        "0x9e002323F46D6908EC4ef5444f1Bd0F67AF9Cf10"
      ],
      "transaction": {
        "from": "0x43f1332fabe7a48f11380899aff5e5dc47a1731e",
        "to": "0xb7ebd3c77c8c0b0cf783b7c8930c01bcdf8c562c",
        "gas": "0x108cf",
        "value": "0x0",
        "input": "0x1129753f0000000000000000000000009e002323f46d6908ec4ef5444f1bd0f67af9cf10",
        "nonce": "0x22",
        "chainId": "0x14a34"
      },
      "additionalContracts": [],
      "isFixedGasLimit": false
    }
  ],
  "receipts": [
    {
      "status": "0x1",
      "cumulativeGasUsed": "0x1e5899",
      "logs": [],
      "logsBloom": "0x00000000000000000000000000000000000000000000000000000000000000000000000000000000000000000000000000000000000000000000000000000000000000000000000000000000000000000000000000000000000000000000000000000000000000000000000000000000000000000000000000000000000000000000000000000000000000000000000000000000000000000000000000000000000000000000000000000000000000000000000000000000000000000000000000000000000000000000000000000000000000000000000000000000000000000000000000000000000000000000000000000000000000000000000000000000",
      "type": "0x2",
      "transactionHash": "0x0dbeaa8475218724fc9509a1eecb392a7c7da797808a51339823e8640919d451",
      "transactionIndex": "0xb",
      "blockHash": "0x7b988a1b91de9594e728373b3d0c552fcbd1f96908bd5cd61352b642314c3370",
      "blockNumber": "0x1c535c4",
      "gasUsed": "0xb511",
      "effectiveGasPrice": "0xf42bb",
      "from": "0x43f1332fabe7a48f11380899aff5e5dc47a1731e",
      "to": "0xb7ebd3c77c8c0b0cf783b7c8930c01bcdf8c562c",
      "contractAddress": null,
      "l1BaseFeeScalar": "0x44d",
      "l1BlobBaseFee": "0x1d982858",
      "l1BlobBaseFeeScalar": "0xa118b",
      "l1Fee": "0x7e1d19f28",
      "l1GasPrice": "0x24ea8f31",
      "l1GasUsed": "0x640"
    }
  ],
  "libraries": [],
  "pending": [],
  "returns": {},
  "timestamp": 1755171432,
  "chain": 84532,
  "commit": "211c611"
}