{
  "transactions": [
    {
      "hash": "0x05b670472c16e98bef044645f7e3f7baa9bd609a942cee53798a07691bdc1364",
      "transactionType": "CALL",
      "contractName": null,
      "contractAddress": "0xd0d1b6e1de2f705701fe370e91f8fb4731161d5a",
      "function": "enableTransfers(bool)",
      "arguments": [
        "true"
      ],
      "transaction": {
        "from": "0x43f1332fabe7a48f11380899aff5e5dc47a1731e",
        "to": "0xd0d1b6e1de2f705701fe370e91f8fb4731161d5a",
        "gas": "0x963d",
        "value": "0x0",
        "input": "0xf41e60c50000000000000000000000000000000000000000000000000000000000000001",
        "nonce": "0x30",
        "chainId": "0x14a34"
      },
      "additionalContracts": [],
      "isFixedGasLimit": false
    }
  ],
  "receipts": [
    {
      "status": "0x1",
      "cumulativeGasUsed": "0x40aadb",
      "logs": [],
      "logsBloom": "0x00000000000000000000000000000000000000000000000000000000000000000000000000000000000000000000000000000000000000000000000000000000000000000000000000000000000000000000000000000000000000000000000000000000000000000000000000000000000000000000000000000000000000000000000000000000000000000000000000000000000000000000000000000000000000000000000000000000000000000000000000000000000000000000000000000000000000000000000000000000000000000000000000000000000000000000000000000000000000000000000000000000000000000000000000000000",
      "type": "0x2",
      "transactionHash": "0x05b670472c16e98bef044645f7e3f7baa9bd609a942cee53798a07691bdc1364",
      "transactionIndex": "0x1a",
      "blockHash": "0xfa60b65bb662b201d313781cb5a50053f678e93b0a3adace0c2adf043ec8e322",
      "blockNumber": "0x1cb95e7",
      "gasUsed": "0x66bb",
      "effectiveGasPrice": "0xecd49",
      "from": "0x43f1332fabe7a48f11380899aff5e5dc47a1731e",
      "to": "0xd0d1b6e1de2f705701fe370e91f8fb4731161d5a",
      "contractAddress": null,
      "l1BaseFeeScalar": "0x44d",
      "l1BlobBaseFee": "0x1",
      "l1BlobBaseFeeScalar": "0xa118b",
      "l1Fee": "0x299979ec",
      "l1GasPrice": "0x179d57ab",
      "l1GasUsed": "0x640"
    }
  ],
  "libraries": [],
  "pending": [],
  "returns": {},
  "timestamp": 1756007086,
  "chain": 84532,
  "commit": "211c611"
}