{
  "transactions": [
    {
      "hash": "0x687928ef981fcd599d3c8689cb0fbb9a23aca265e651cbc4cc3d92368ea1258d",
      "transactionType": "CALL",
      "contractName": null,
      "contractAddress": "0x0febb9594586fd1626e33e63ab8b966b58ec9682",
      "function": "enableTransfers(bool)",
      "arguments": [
        "true"
      ],
      "transaction": {
        "from": "0x43f1332fabe7a48f11380899aff5e5dc47a1731e",
        "to": "0x0febb9594586fd1626e33e63ab8b966b58ec9682",
        "gas": "0xa63c",
        "value": "0x0",
        "input": "0xf41e60c50000000000000000000000000000000000000000000000000000000000000001",
        "nonce": "0x32",
        "chainId": "0x14a34"
      },
      "additionalContracts": [],
      "isFixedGasLimit": false
    }
  ],
  "receipts": [
    {
      "status": "0x1",
      "cumulativeGasUsed": "0x25ce5d",
      "logs": [],
      "logsBloom": "0x00000000000000000000000000000000000000000000000000000000000000000000000000000000000000000000000000000000000000000000000000000000000000000000000000000000000000000000000000000000000000000000000000000000000000000000000000000000000000000000000000000000000000000000000000000000000000000000000000000000000000000000000000000000000000000000000000000000000000000000000000000000000000000000000000000000000000000000000000000000000000000000000000000000000000000000000000000000000000000000000000000000000000000000000000000000",
      "type": "0x2",
      "transactionHash": "0x687928ef981fcd599d3c8689cb0fbb9a23aca265e651cbc4cc3d92368ea1258d",
      "transactionIndex": "0xb",
      "blockHash": "0x820713664abcbcb2212771ac587e6e322fd7f8364f10969fe9a94f92fed92c68",
      "blockNumber": "0x1cb9611",
      "gasUsed": "0x71ab",
      "effectiveGasPrice": "0xf07e1",
      "from": "0x43f1332fabe7a48f11380899aff5e5dc47a1731e",
      "to": "0x0febb9594586fd1626e33e63ab8b966b58ec9682",
      "contractAddress": null,
      "l1BaseFeeScalar": "0x44d",
      "l1BlobBaseFee": "0x1",
      "l1BlobBaseFeeScalar": "0xa118b",
      "l1Fee": "0x1c4873df",
      "l1GasPrice": "0x100e280e",
      "l1GasUsed": "0x640"
    }
  ],
  "libraries": [],
  "pending": [],
  "returns": {},
  "timestamp": 1756007171,
  "chain": 84532,
  "commit": "211c611"
}